:0300000002087083
:0C087000787FE4F6D8FD758109020800CD
:10080000E4F508F5091208363091031208613091B9
:10081000087599593099FDC2993091ECC3E5099456
:10082000F4E5086480948150DF0509E5097002054C
:060830000812086180E3DC
:10083600759850758920758780758DF3758BF3D201
:06084600ACD2AFD28E22FD
:0300230002084C84
:07084C00C0D075D000C00709
:09085300AF99C298BF4F02C29098
:05085C00D007D0D032EE
:0E086100E4FFFE0FBF00010EEF64644E70F561
:01086F002266
:00000001FF
